:02000000522D7F
:08000800FF00030E8312031335
:10001000B4000A0EB500040EB6008A110A12892D2A
:10002000DF08031D14280800F53000000000000060
:1000300000000000000000000000000000000000C0
:1000400000000000000000000000FF3E031D152816
:1000500000000000000000000000000000000000A0
:1000600000000000000000000000DF0B1428080062
:10007000E408031D3C28080009300000FF3E031D72
:100080003D2800000000E40B3C280800E601E701E1
:10009000E901EA01E801681A08000310E90DEA0D18
:1000A000E00DE10DE60DE70D63086702031D5A2818
:1000B00062086602031C63286208E6026308031CE8
:1000C000E703E7026914E80A4B28DE015D085E02D7
:1000D0000318080064000130DF001020DE0A6628E3
:1000E000061086100611861106128612610E0F394F
:1000F000E3000F30E30563180614E3188614631950
:100100000615E3198615E208031D06160A30E400F9
:10011000382086160A30E400382086120F30610538
:10012000E3000A30E400382006108610061186111C
:100130000612861263180614E3188614631906154E
:10014000E3198615E208031D06160A30E40038207C
:1001500086160A30E400382086120A30E40038207F
:100160000800FF3083120313DB00831605150430EB
:1001700083120505DB005B08DC000800FF308312FA
:100180000313DB0083160514013083120505DB0021
:100190005B08DC000800FF3083120313DB008316CA
:1001A0008514023083120505DB005B08DC000800C3
:1001B000E001E0015F0860020318080083135C1887
:1001C00083175B0860078400800803190800831305
:1001D0005C1883175B08600784000008E10010309A
:1001E000E2007020E00ADA28DC1F03292D30E1004C
:1001F0001030E20070205B08003CE000DC090318CE
:10020000DC0A6008DB005B08DD005C08DE002730EC
:100210005C02031D0D2910305B02031C3B29DC1B13
:100220003B29E4015D08E0005E08E100DE1F1E29B5
:10023000E009E109E00A0319E10AE40A1030E200EA
:100240002730E30046206908DF00641C2929DF0904
:10025000DF0A5F08303EE1001030E20070205F08E6
:10026000003C03183B291030DD022730031C2830E6
:10027000DE02DF032F2903305C02031D4129E83031
:100280005B02031C7129DC1B7129E5015D08E0009C
:100290005E08E100DE1F5229E009E109E00A0319C6
:1002A000E10AE50AE830E2000330E300462069088D
:1002B000E400651C5D29E409E40A6408DF005F08C6
:1002C000303EE1001030E20070205F08003C03186F
:1002D0007129E830DD020330031C0430DE02DF0345
:1002E00065295C08803AE00080306002031D7A29AD
:1002F00064305B02031CA629E5015D08E0005E088E
:10030000E100DE1F8929E009E109E00A0319E10A99
:10031000E50A6430E200E30146206908E400651C58
:100320009329E409E40A6408DF005F08303EE10035
:100330001030E20070205F08003C0318A6296430EA
:10034000DD02DE08031CDE03DF039B295C08803A24
:10035000E00080306002031DAF290A305B02031CFD
:10036000DB29E5015D08E0005E08E100DE1FBE2933
:10037000E009E109E00A0319E10AE50A0A30E200AE
:10038000E30146206908E400651CC829E409E40A81
:100390006408DF005F08303EE1001030E2007020AA
:1003A0005F08003C0318DB290A30DD02DE08031C6D
:1003B000DE03DF03D0295D08303EE1001030E200AB
:1003C00070200800DC08031DE8298030DC00F729D4
:1003D0005C03031DEE29C030DC00F7295C08023AFB
:1003E000031DF5299030DC00F729D030DC005B08D4
:1003F0005C07E100E20170200230DD0065200800AA
:1004000083160313061083120610831686108312B8
:100410008610831606118312061183168611831225
:100420008611831606128312061283168612831211
:1004300086120C30DD0065203330E100E2017020CF
:100440000230DD0065203330E100E201702002302F
:10045000DD0065203230E100E20170200230DD0075
:1004600065202C30E100E20170200230DD006520C3
:100470000630E100E20170200230DD0065200C3022
:10048000E100E20170200230DD0065200130E10072
:10049000E20170200230DD0065200230E100E2015F
:1004A00070200230DD0065200800831603178801E4
:1004B0008901C030031381000022CB205C08D000EA
:1004C0000A304D020318752A0530DB00DC01E221F9
:1004D0004208DB00DC01F4200430DB00DC01E22117
:1004E0004D08DB00DC01F4207D2A0530DB00DC0157
:1004F000E2214D08DB00DC01F4200630DB00DC01EA
:10050000E2213A30DD00DE010030DC005D30DB004E
:100510000130DF00D8200A3046020318A02A083034
:10052000DB00DC01E2214608DB00DC01F4200730BF
:10053000DB00DC01E2214A08DB00DC01F420A82A10
:100540000730DB00DC01E2214608DB00DC01F4209F
:100550000930DB00DC01E2213A30DD00DE01003051
:10056000DC005D30DB000130DF00D8200A304902BA
:100570000318CB2A0B30DB00DC01E2214908DB0049
:10058000DC01F4200A30DB00DC01E2214708DB005B
:10059000DC01F420D32A0A30DB00DC01E221490827
:1005A000DB00DC01F4205003031DDA2A4C0ACC00E6
:1005B000CF01D101D4014C08003C031CD40AD20164
:1005C000D20ACF08031D52105208D405D301D30A12
:1005D000D108031D5310530854050319172CBE20CE
:1005E0005C08C400B1205C08C500CB205C08D000CA
:1005F0004403031DFF2ACC010130CF00D101450384
:10060000031D062BCC01CF010130D1005008013C65
:1006100003180E2B4C0ACC00CF01D1014C08023A32
:10062000031D902B0A304D020318292B0530DB00E7
:100630004C03DC00E2214208DB00DC01F420043042
:10064000DB004C03DC00E2214D08DB00DC01F42080
:10065000322B0530DB004C03DC00E2214D08DB00CF
:10066000DC01F4200630DB004C03DC00E2213A30F0
:10067000DD00DE010030DC005D30DB000130DF003A
:10068000D8200A3046020318582B0830DB004C03F0
:10069000DC00E2214608DB00DC01F4200730DB004F
:1006A0004C03DC00E2214A08DB00DC01F420612B72
:1006B0000730DB004C03DC00E2214608DB00DC01F4
:1006C000F4200930DB004C03DC00E2213A30DD008D
:1006D000DE010030DC005D30DB000130DF00D820BF
:1006E0000A3049020318872B0B30DB004C03DC0077
:1006F000E2214908DB00DC01F4200A30DB004C0376
:10070000DC00E2214708DB00DC01F420902B0A30FA
:10071000DB004C03DC00E2214908DB00DC01F420B3
:100720000A304D020318A52B0530DB00DC01E22165
:100730004208DB00DC01F4200430DB00DC01E221B4
:100740004D08DB00DC01F420AD2B0530DB00DC01C3
:10075000E2214D08DB00DC01F4200630DB00DC0187
:10076000E2213A30DD00DE010030DC005D30DB00EC
:100770000130DF00D8200A3046020318D02B0830A1
:10078000DB00DC01E2214608DB00DC01F42007305D
:10079000DB00DC01E2214A08DB00DC01F420D82B7D
:1007A0000730DB00DC01E2214608DB00DC01F4203D
:1007B0000930DB00DC01E2213A30DD00DE010030EF
:1007C000DC005D30DB000130DF00D8200A30490258
:1007D0000318FB2B0B30DB00DC01E2214908DB00B6
:1007E000DC01F4200A30DB00DC01E2214708DB00F9
:1007F000DC01F420032C0A30DB00DC01E221490893
:10080000DB00DC01F4200130DF001020490AC900C0
:100810004908643A031DDA2AC901460AC600460897
:100820003C3A031DDA2AC6014D0ACD00DA2AD70167
:10083000D70ACC08031D5710D5014F030319D50A59
:100840005508D705D601D60AD108031D56105608FB
:1008500057050319B32CCB205C08D000B1205C08ED
:10086000C5005003031D382C0130CC00CF01D1014D
:100870004503031D3F2CCC01CF010130D1000A30CC
:100880004D020318542C0530DB00DC01E221420844
:10089000DB00DC01F4200430DB00DC01E2214D0848
:1008A000DB00DC01F4205C2C0530DB00DC01E22104
:1008B0004D08DB00DC01F4200630DB00DC01E22126
:1008C0003A30DD00DE010030DC005D30DB0001305D
:1008D000DF00D8200A30460203187F2C0830DB00E6
:1008E000DC01E2214608DB00DC01F4200730DB00FC
:1008F000DC01E2214A08DB00DC01F420872C073010
:10090000DB00DC01E2214608DB00DC01F4200930D9
:10091000DB00DC01E2213A30DD00DE010030DC00EA
:100920005D30DB000130DF00D8200A3049020318B7
:10093000AA2C0B30DB00DC01E2214908DB00DC01E2
:10094000F4200A30DB00DC01E2214708DB00DC0197
:10095000F420172C0A30DB00DC01E2214908DB001F
:10096000DC01F420172CDA01DA0ACC08031D5A1036
:10097000D801D80ACF08031D58105808DA05D90144
:1009800051030319D90A59085A0503195D2ACB20C6
:100990005C08D000BE205C08C4004403031DD42CB6
:1009A000CC010130CF00D1015003031DDB2C0130FD
:1009B000CC00CF01D101C901CD01C6010A304D02E1
:1009C0000318F32C0530DB00DC01E2214208DB00D8
:1009D000DC01F4200430DB00DC01E2214D08DB0007
:1009E000DC01F420FB2C0530DB00DC01E2214D08AA
:1009F000DB00DC01F4200630DB00DC01E2213A30D0
:100A0000DD00DE010030DC005D30DB000130DF00A6
:100A1000D8200A30460203181E2D0830DB00DC0106
:100A2000E2214608DB00DC01F4200730DB00DC01BA
:100A3000E2214A08DB00DC01F420262D0730DB0030
:100A4000DC01E2214608DB00DC01F4200930DB0098
:100A5000DC01E2213A30DD00DE010030DC005D30F7
:100A6000DB000130DF00D8200A3049020318492D8D
:100A70000B30DB00DC01E2214908DB00DC01F42063
:100A80000A30DB00DC01E2214708DB00DC01F42056
:100A9000B32C0A30DB00DC01E2214908DB00DC0179
:100AA000F420B32CD53083120313A000C430A1006E
:100AB000BB30A200DC30A300A401A501A601A70160
:100AC000A801A901AA01AB01AC01AD01AE01AF01C2
:100AD000BC01BD01B701B801BE01BF01C001C10128
:100AE000B001B101B201B301BA01BB01B901C20148
:100AF000C301C401C501C601C801C901CA01CB01B6
:100B0000CC01CD01CE01CF01D001D1018A110A1251
:100B1000552A83120313360E8400350E8A00340ED4
:080B20008300FF0E7F0E0900A7
:02400E00E223AB
:02401000FF3E71
:00000001FF
